{
  "contractName": "Multisig",
  "abi": [
    {
      "inputs": [
        {
          "internalType": "address[]",
          "name": "_approvers",
          "type": "address[]"
        },
        {
          "internalType": "uint256",
          "name": "_quorum",
          "type": "uint256"
        }
      ],
      "stateMutability": "payable",
      "type": "constructor",
      "payable": true
    },
    {
      "inputs": [
        {
          "internalType": "uint256",
          "name": "",
          "type": "uint256"
        }
      ],
      "name": "approvers",
      "outputs": [
        {
          "internalType": "address",
          "name": "",
          "type": "address"
        }
      ],
      "stateMutability": "view",
      "type": "function",
      "constant": true
    },
    {
      "inputs": [],
      "name": "quorum",
      "outputs": [
        {
          "internalType": "uint256",
          "name": "",
          "type": "uint256"
        }
      ],
      "stateMutability": "view",
      "type": "function",
      "constant": true
    },
    {
      "inputs": [
        {
          "internalType": "uint256",
          "name": "_amount",
          "type": "uint256"
        },
        {
          "internalType": "address payable",
          "name": "_to",
          "type": "address"
        }
      ],
      "name": "createTransfer",
      "outputs": [],
      "stateMutability": "nonpayable",
      "type": "function"
    },
    {
      "inputs": [
        {
          "internalType": "uint256",
          "name": "_id",
          "type": "uint256"
        }
      ],
      "name": "sendTransfer",
      "outputs": [],
      "stateMutability": "nonpayable",
      "type": "function"
    }
  ],
  "bytecode": "0x608060405260405161077d38038061077d833981016040819052610022916100d5565b815161003590600090602085019061003f565b50600155506101cd565b828054828255906000526020600020908101928215610094579160200282015b828111156100945782518254600160a060020a031916600160a060020a0390911617825560209092019160019091019061005f565b506100a09291506100a4565b5090565b5b808211156100a057600081556001016100a5565b8051600160a060020a03811681146100d057600080fd5b919050565b600080604083850312156100e7578182fd5b825167ffffffffffffffff808211156100fe578384fd5b818501915085601f830112610111578384fd5b81516020828211156101255761012561019e565b808202604051828282010181811086821117156101445761014461019e565b604052838152828101945085830182870184018b1015610162578889fd5b8896505b8487101561018b57610177816100b9565b865260019690960195948301948301610166565b5097909101519698969750505050505050565b7f4e487b7100000000000000000000000000000000000000000000000000000000600052604160045260246000fd5b6105a1806101dc6000396000f3fe608060405234801561001057600080fd5b5060043610610068577c010000000000000000000000000000000000000000000000000000000060003504631703a018811461006d5780634c12fa471461008b578063d1c68d1e146100a0578063d3650fb8146100b3575b600080fd5b6100756100d3565b6040516100829190610522565b60405180910390f35b61009e610099366004610466565b6100d9565b005b61009e6100ae36600461044e565b61024e565b6100c66100c136600461044e565b610424565b60405161008291906104a0565b60015481565b6000805b60005481101561015d5733600160a060020a03166000828154811061012b577f4e487b7100000000000000000000000000000000000000000000000000000000600052603260045260246000fd5b600091825260209091200154600160a060020a0316141561014b57600191505b806101558161052b565b9150506100dd565b506001811515146101a3576040517f08c379a000000000000000000000000000000000000000000000000000000000815260040161019a906104b4565b60405180910390fd5b6040805160a081018252600380548083526020808401888152600160a060020a0388811686880190815260006060880181815260808901828152968252600295869052988120975188559251600188015551928601805473ffffffffffffffffffffffffffffffffffffffff19169390911692909217909155935183830155516004909201805460ff1916921515929092179091558054916102448361052b565b9190505550505050565b6000805b6000548110156102d25733600160a060020a0316600082815481106102a0577f4e487b7100000000000000000000000000000000000000000000000000000000600052603260045260246000fd5b600091825260209091200154600160a060020a031614156102c057600191505b806102ca8161052b565b915050610252565b5060018115151461030f576040517f08c379a000000000000000000000000000000000000000000000000000000000815260040161019a906104b4565b33600090815260046020908152604080832085845290915290205460ff1661035457600082815260026020526040812060030180549161034e8361052b565b91905055505b60008281526002602052604090206004015460ff16156103a0576040517f08c379a000000000000000000000000000000000000000000000000000000000815260040161019a906104eb565b6001546000838152600260205260409020600301541061042057600082815260026020819052604080832060048101805460ff19166001908117909155928101549201549051600160a060020a03909216929091839183156108fc02918491818181858888f1935050505015801561041c573d6000803e3d6000fd5b5050505b5050565b6000818154811061043457600080fd5b600091825260209091200154600160a060020a0316905081565b60006020828403121561045f578081fd5b5035919050565b60008060408385031215610478578081fd5b823591506020830135600160a060020a0381168114610495578182fd5b809150509250929050565b600160a060020a0391909116815260200190565b60208082526016908201527f4f6e6c7920617070726f7665727320616c6c6f77656400000000000000000000604082015260600190565b6020808252601e908201527f5472616e736665722068617320616c7265616479206265656e2073656e740000604082015260600190565b90815260200190565b6000600019821415610564577f4e487b710000000000000000000000000000000000000000000000000000000081526011600452602481fd5b506001019056fea26469706673582212208142d541e0345e2125eaa7faefced16b584b3602c18f77759b550e9248a0c03e64736f6c63430008000033",
  "immutableReferences": {},
  "source": "//SPDX-License-Identifier: MIT\npragma solidity ^0.8.0;\n\ncontract Multisig {\n    address[] public approvers;\n    uint256 public quorum;\n    struct Transfer {\n        uint256 id;\n        uint256 amount;\n        address payable to;\n        uint256 amountOfApprovers;\n        bool sent;\n    }\n    mapping(uint256 => Transfer) transfers;\n    uint256 nextId;\n    mapping(address => mapping(uint256 => bool)) approvals;\n\n    constructor(address[] memory _approvers, uint256 _quorum) payable {\n        approvers = _approvers;\n        quorum = _quorum;\n    }\n\n    modifier onlyApprovers() {\n        bool allowed = false;\n        for (uint256 i = 0; i < approvers.length; i++) {\n            if (approvers[i] == msg.sender) {\n                allowed = true;\n            }\n        }\n        require(allowed == true, \"Only approvers allowed\");\n        _;\n    }\n\n    function createTransfer(uint256 _amount, address payable _to)\n        external\n        onlyApprovers\n    {\n        transfers[nextId] = Transfer(nextId, _amount, _to, 0, false);\n        nextId++;\n    }\n\n    function sendTransfer(uint256 _id) external onlyApprovers {\n        if (approvals[msg.sender][_id] == false) {\n            approvals[msg.sender][_id] == true;\n            transfers[_id].amountOfApprovers++;\n        }\n        require(transfers[_id].sent == false, \"Transfer has already been sent\");\n        if (transfers[_id].amountOfApprovers >= quorum) {\n            transfers[_id].sent = true;\n            address payable to = transfers[_id].to;\n            uint256 amount = transfers[_id].amount;\n            to.transfer(amount);\n            return;\n        }\n    }\n}\n",
  "sourcePath": "/Users/jasonha/Desktop/demos/smart_contracts/multisig_wallet/smart_contract/contracts/Multisig.sol",
  "compiler": {
    "name": "solc",
    "version": "0.8.0+commit.c7dfd78e.Emscripten.clang"
  },
  "schemaVersion": "3.4.5",
  "updatedAt": "2022-02-28T21:19:27.009Z",
  "networkType": "ethereum",
  "devdoc": {
    "kind": "dev",
    "methods": {},
    "version": 1
  },
  "userdoc": {
    "kind": "user",
    "methods": {},
    "version": 1
  }
}